:100000000C9434000C943E000C943E000C943E0082
:100010000C943E000C943E000C943E000C943E0068
:100020000C943E000C943E000C943E000C943E0058
:100030000C943E000C943E000C943E000C943E0048
:100040000C943E000C943E000C943E000C943E0038
:100050000C943E000C943E000C943E000C943E0028
:100060000C943E000C943E0011241FBECFEFD8E04C
:10007000DEBFCDBF0E9472000C9477000C9400008C
:100080008AB18C618AB908955A9A5B985C980895F0
:100090005A985B9A5C9808955A985B985C9A089570
:1000A0000E9444002FEF8FE493EC21508040904059
:1000B000E1F700C000000E9448002FEF83E294EFB8
:1000C000215080409040E1F700C000000E944C00A9
:1000D0002FEF87EA91E6215080409040E1F700C081
:1000E000000008950E9440000E945000FDCFF89447
:0200F000FFCF40
:00000001FF
