:100000000C9434000C9451000C9451000C94510049
:100010000C9451000C9451000C9451000C9451001C
:100020000C9451000C9451000C9451000C9451000C
:100030000C9451000C9451000C9451000C945100FC
:100040000C9451000C9451000C9451000C945100EC
:100050000C9451000C9451000C9451000C945100DC
:100060000C9451000C94510011241FBECFEFD8E026
:10007000DEBFCDBF21E0A4E0B1E001C01D92A630FB
:10008000B207E1F711E0A0E0B1E0E6E6F5E002C07A
:1000900005900D92A430B107D9F70E94A9010C94E4
:1000A000B1020C940000529A539A549A089521E098
:1000B00030E0A90102C0440F551F8A95E2F7CA013A
:1000C000209105016623C9F0822B8093050127E06A
:1000D00030E08091050190E0022E02C09595879551
:1000E0000A94E2F780FF0CC05A9A5B985B9A215001
:1000F000310978F75C9A5C98089580958223E5CF62
:100100005A98F3CFCF93C0E061E08C2F0E94570044
:100110002FEF81EE94E0215080409040E1F700C045
:100120000000CF5FC83081F72FEF81EE94E02150BF
:1001300080409040E1F700C00000C7E060E08C2FF5
:100140000E9457002FEF81EE94E0215080409040B4
:10015000E1F700C00000C15088F72FEF89E698E171
:10016000215080409040E1F700C00000CF910895F9
:10017000CF93C0E061E08C2F0E9457002FEF83ECFB
:1001800099E0215080409040E1F700C0000060E01D
:100190008C2F0E945700CF5FC83061F72FEF89E6A0
:1001A00098E1215080409040E1F700C00000CF91DD
:1001B0000895CF93C0E061E08C2F0E9457002FEF8D
:1001C00083EC99E0215080409040E1F700C00000AE
:1001D00060E08C2F0E945700CF5FC83061F7C6E007
:1001E00061E08C2F0E9457002FEF83EC99E02150A3
:1001F00080409040E1F700C0000060E08C2F0E943A
:100200005700C15069F7CF9108950E943E0268E0FF
:1002100070E00E94AE0108950E94050190910401D2
:100220009817D1F38093040161E00E9457002FEFEB
:1002300081EE94E0215080409040E1F700C0000042
:1002400060E0809104010E9457002FEF83EC99E059
:10025000215080409040E1F700C000000895CF9306
:10026000DF93C0E061E08C2F0E945700D4E0DC0FE8
:1002700061E08D2F0E9457002FEF83EC99E0215011
:1002800080409040E1F700C0000060E08C2F0E94A9
:10029000570060E08D2F0E945700CF5FC33011F7E9
:1002A000DF91CF91089510E0612F617080E00E948E
:1002B0005700C12F012E000CDD0BBE01759567950F
:1002C000617081E00E945700BE0175956795759534
:1002D0006795617082E00E945700BE0123E075952A
:1002E00067952A95E1F7617083E00E945700BE018F
:1002F00034E0759567953A95E1F7617084E00E9466
:100300005700BE0145E0759567954A95E1F7617024
:1003100085E00E945700BE0156E0759567955A9595
:10032000E1F7617086E00E945700CC0FCD2FCC1F03
:10033000DD0B6C2F617087E00E9457002FEF89E67C
:1003400098E1215080409040E1F700C000001F5F1D
:10035000ABCF0E9453000E940C01FDCF97FB072EEC
:1003600016F4009407D077FD09D00E94C20107FC63
:1003700005D03EF4909581959F4F089570956195B5
:100380007F4F0895AA1BBB1B51E107C0AA1FBB1FCB
:10039000A617B70710F0A61BB70B881F991F5A9511
:1003A000A9F780959095BC01CD010895CF92DF9279
:1003B000EF92FF92CF93DF93CDB7DEB72A970FB6B8
:1003C000F894DEBF0FBECDBF89879A87A985BA850D
:1003D0002D913D914D915C9129833A834B835C83B0
:1003E000232B242B252B41F424E239ED4BE557E058
:1003F00029833A834B835C8369817A818B819C81D9
:100400002DE133EF41E050E00E944E0269017A0194
:10041000A7EAB1E49B01AC010E946D0269837A8373
:100420008B839C83ACEEB4EFA70196010E947B0204
:100430009B01AC0189819A81AB81BC81820F931FA2
:10044000A41FB51FB7FF03C00197A109B048E985F4
:10045000FA8580839183A283B3839F772A960FB610
:10046000F894DEBF0FBECDBFDF91CF91FF90EF902C
:10047000DF90CF9008950E94D601089580E091E02A
:100480000E94D6010895B0E0A0E08093000190930F
:100490000101A0930201B09303010895052E97FB7B
:1004A0001EF400940E94650257FD07D00E9480024E
:1004B00007FC03D04EF40C9465025095409530959E
:1004C00021953F4F4F4F5F4F0895909580957095C0
:1004D00061957F4F8F4F9F4F08950E94A202A59F65
:1004E000900DB49F900DA49F800D911D112408952F
:1004F000B7FF0C946D020E946D02821B930B08954E
:10050000A1E21A2EAA1BBB1BFD010DC0AA1FBB1F17
:10051000EE1FFF1FA217B307E407F50720F0A21B89
:10052000B30BE40BF50B661F771F881F991F1A94F6
:1005300069F760957095809590959B01AC01BD0120
:10054000CF010895A29FB001B39FC001A39F700D7A
:10055000811D1124911DB29F700D811D1124911DCB
:060560000895F894FFCF9E
:040566000100000090
:00000001FF
